:100000000C94F6040C941E050C941E050C941E050D
:100010000C941E050C941E050C941E050C941E05D4
:100020000C941E050C941E050C941E050C941E05C4
:100030000C941E050C941E050C941E050C941E05B4
:100040000C94B9100C941E050C948D0B0C94670B3A
:100050000C941E050C941E050C941E050C941E0594
:100060000C9440090C941E05084AD73B3BCE016E08
:1000700084BCBFFDC12F3D6C74319ABD56833DDAFF
:100080003D00C77F11BED9E4BB4C3E916BAAAABE0E
:10009000000000803F0001B202FFFF01900409232D
:1000A000A135016A0206000160080000000000009E
:1000B00000000060044000000001620200000060D7
:1000C0000400400000037B034CCD6C03AB033656A9
:1000D0007600680402CB47A202180400058BC10118
:1000E0000C0400000000037F060CC92C97979703AF
:1000F0008903264666006C022000024004000000CE
:100100000002440400000000024804000000000255
:100110004C040000000002500400000000025404DF
:100120000000000002580400000000025C0400000F
:10013000000002BC040000000001EC0400004000CC
:10014000037F060CC92C9797970402030D355D04B5
:100150000904872D353D00A301000000000107863A
:1001600001FE074105F120283038077E013007469F
:10017000019A074704F1283038076C04F128303819
:100180000216020001FB00003E000B0036000100D9
:10019000020003000000650054FFEF0000FA800039
:1001A0000B128200010002000000000000000000AD
:1001B000000000000000280000FFFF4581FFFFFA5B
:1001C0007200000000000003E80000000100017F51
:1001D000FFFFFE8001001B00000000000000000087
:1001E0000000000000003E03304000000002CAE3AF
:1001F000093E8000002000000000000000400000D8
:10020000006000000041FF000000000B2A00001603
:100210005500002182FD872650FD800000001F0050
:100220000000058000000000000001000000020046
:100230000000030000400000000000046F000265A1
:100240003200005EC040000000000000000000001E
:100250000000000000FB8C6F5DFD5D08D9007C7321
:100260003B006C12CC3200139D3200D0D632000815
:1002700000400001F4FFE68079020000000000D099
:10028000D600002710FB0000004000000000000026
:10029000000000000000000001000000000000015C
:1002A00000010000000000FA36FFBC308E0005FBA4
:1002B000F0FFD95BC8FFD09ABE000010A9FFF41E62
:1002C000B200CEBBF70000000100000004000200F5
:1002D000020200000CFFC280000001800000CF80FD
:1002E00000400000000000000100000000000006C7
:1002F00000000000140000000000000000000000EA
:1003000000000000000000000000000000000000ED
:1003100000000000000000000000000000000000DD
:10032000000000000000000000033F68B679352897
:10033000BCC67ED16C80000000400000000000B20E
:100340006A00000000000000000000000000003F04
:10035000F00000003000000000000000000000007D
:10036000000000000000000000000000000000008D
:1003700000000000000000254D002F706D000005FA
:10038000AE000C02D00000000000650054FFEF003A
:100390000000000000000001000044000000000C0C
:1003A0000000000100000000000065000000540093
:1003B00000FFEF000000000000000000000000004F
:1003C00000000000004000000000000000000000ED
:1003D00000000000004000000000000000000000DD
:1003E000000000000000000001000000020000000A
:1003F00000000000000000000000000000000000FD
:1004000000000000000000000000000000000000EC
:100410000000000000001B000000000000000000C1
:1004200000000000000000000000000000000000CC
:1004300000000000000000000000000000000000BC
:100440000040000000001B00000000000000000051
:10045000000000000000000000000000000000009C
:10046000000000000000000000000000000000008C
:10047000000000000000000000000000000000007C
:100480000000000000D8DCBAA2F1DEB2B8B4A88146
:1004900091F74A907F916AF3F9DBA8F9B0BAA0808E
:1004A000F2CE81F3C2F1C1F2C3F3CCA2B280F1C6A5
:1004B000D880BAA7DFDFDFF2A7C3CBC5B6F087A22B
:1004C000942448703C95406834589B78A2F18392FC
:1004D0002D557DD8B1B4B8A1D09180F270F370F2EF
:1004E0007C80A8F101B09887D943D886C988BAA181
:1004F000F20EB89780F1A9DFDFDFAADFDFDFF2AA13
:10050000C5CDC7A90CC92C97979797F1A9892646FD
:1005100066B0B4BA80ACDEF2CAF1B28C02A9B69869
:1005200000890E161EB8A9B4992C547CB08AA896DE
:10053000365676F1B9AFB4B083C0B8A89711B18F71
:1005400098B9AFF0240844106418F1A329557DAF81
:1005500083B593AFF0002850F1A3869F61A6DADE41
:10056000DFD9FAA38696DB31A6D9F8DFBAA68FC207
:10057000C5C7B28CC1B8A2DFDFDFA3DFDFDFD8D809
:10058000F1B8A8B286B4980D355DB8AA98B0872D99
:10059000353DB2B6BAAF8C96198F9FA70E161EB412
:1005A0009AB8AA872C547CB9A3DEDFDFA3B180F20E
:1005B000C4CDC9F1B8A9B499830D355D89B9A32D0E
:1005C000557DB593A30E161EA92C547CB8B4B0F17A
:1005D0009783A81184A50998A383F0DA240844100E
:1005E0006418D8F1A529557DA58595021A2E3A568D
:1005F0005A4048F9F3A3D9F8F098832408441064CA
:10060000189782A8F111F098A2240844106418DA0F
:10061000F3DED883A59401D9A302F1A2C3C5C7D83C
:10062000F18492A24DDA2AD84869D92AD86855DAD5
:1006300032D85071D932D8705DDA3AD85879D93A6F
:10064000D87893A34DDA2AD84869D92AD86855DAD8
:1006500032D85071D932D8705DDA3AD85879D93A4F
:10066000D878A88A9AF02850789EF38818F19F1DB0
:1006700098A8D908D8C89F129EF315A8DA1210D8E6
:10068000F1AFC8978734B5B994A421F3D922D8F231
:100690002DF3D92AD8F235F3D932D881A46060611C
:1006A000D961D86C6869D969D8747071D971D8B1B9
:1006B000A384193D5DA3831A3E5E9310308110110F
:1006C000B8B0AF8F94F2DA3ED8B49AA88729DAF896
:1006D000D8879A35DAF8D8879A3DDAF8D8B1B9A42C
:1006E0009885022E56A581000C14A397B08AF12D8F
:1006F000D928D84DD948D86DD968D8B1840DDA0E2B
:10070000D8A32983DA2C0ED8A3844983DA2C4C0E83
:10071000D8B8B0A88A9AF520AADADFD8A840AAD01B
:10072000DADED8A860AADAD0DFD8F19786A8319BA4
:10073000069907AB9728889BF00C201440B8B0B4FA
:10074000A88C9CF0042851791D301438B282ABD0AB
:10075000982C505078789BF11AB0F08A9CA82951B7
:10076000798B2951798A2470598B2058718A446970
:10077000388B3940688A6448318B304960A58820BD
:100780000971584468113964493019F1AC002C548E
:100790007CF08CA804285078F1889726A85998AC4A
:1007A0008C02264666F0899CA82951792470594408
:1007B0006938644831A98809205970AB11384069FB
:1007C000A8193148608CA83C415C207C00F18798D6
:1007D0001986A86E767EA999882D557D9EB9A38A23
:1007E000228A6E8A568A5E9FB183062646660E2E40
:1007F0004E6E9DB8AD002C547CF2B18CB499B9A367
:100800002D557D8191AC38AD3AB58391AC2DD92869
:10081000D84DD948D86DD968D88C9DAE29D904AEA9
:10082000D851D904AED879D904D881F39DAD008DC3
:10083000AE1981ADD901D8F2AEDA26D88E912983CE
:10084000A7D9ADADADADF32AD8D8F1B0AC89913E02
:100850005E76F3AC2E2EF1B18C5A9CAC2C28282855
:100860009CAC3018A8988128343C9724A728343CA5
:100870009C24F2B089AC912C4C6C8A9B2DD9D8D891
:1008800051D9D8D879D9D8D8F19E88A331DAD8D817
:10089000912DD928D84DD948D86DD968D8B183932E
:1008A000353D8025DAD8D88569DAD8D8B49381A3C4
:1008B00028343CF3AB8BF8A391B609B4D9ABDEFA7C
:1008C000B0879CB9A3DDF1A3A3A3A395F1A3A3A330
:1008D0009DF1A3A3A3A3F2A3B49080F2A3A3A3A327
:1008E000A3A3A3A3A3A3B2A3A3A3A3A3A3B087B5C6
:1008F00099F1A3A3A398F1A3A3A3A397A3A3A3A34D
:10090000F39BA3A3DCB9A7F1262626D8D8FF29009C
:10091000444D5020496E697469616C697A617469EB
:100920006F6E206661696C65642028636F64652062
:1009300000456E61626C696E6720444D50004D50F9
:10094000553630353020636F6E6E656374696F6E37
:10095000206661696C6564004D5055363035302035
:10096000636F6E6E656374696F6E20737563636524
:10097000737366756C00496E697469616C697A6934
:100980006E6720444D500000000000250028002B19
:100990000000000000240027002A000404040404CE
:1009A000040404020202020202030303030303011C
:1009B00002040810204080010204081020010204F3
:1009C0000810200001020304051112131415160A61
:1009D0000B0C0D0E0F0000000800020100000304C4
:1009E000070000000000000000005B1D11241FBE76
:1009F000CFEFD8E0DEBFCDBF11E0A0E0B1E0E4EE84
:100A0000F7E402C005900D92A435B107D9F723E0B1
:100A1000A4E5B1E001C01D92A83FB207E1F714E0E0
:100A2000C6EFD4E004C02197FE010E945E1EC53FC0
:100A3000D107C9F70E9403110C94F0230C94000015
:100A400085ED8093BC008091BC0084FDFCCF1092AA
:100A50002D0208954091A603262F30E0240F311D6A
:100A600021323105DCF420912D022430C9F4FC013F
:100A700080E090E0861758F43091A6032191DC01C4
:100A8000AC57BC4FA30FB11D2C930196F3CF8091AF
:100A9000A603680F6093A60380E0089581E008959F
:100AA00082E008950895E091060280910502E8171A
:100AB00030F4F0E0EB51FE4F808190E008958FEF2D
:100AC0009FEF08959091060280910502981750F4C7
:100AD000E92FF0E0EB51FE4F208130E09F5F9093D3
:100AE000060202C02FEF3FEFC90108958091050271
:100AF00090E020910602821B91090895CF92DF9227
:100B0000EF92FF920F931F93CF93DF937C01262FD9
:100B1000972F8A0180912E02882391F0C62FD72F1C
:100B20006E01C40ED51ECC15DD0571F06991D7019B
:100B3000ED91FC910190F081E02DC7010995F3CF73
:100B4000642F822F0E942A05C801DF91CF911F9147
:100B50000F91FF90EF90DF90CF900895CF93DF93A8
:100B60001F92CDB7DEB7698320912E022223D1F0E8
:100B700020913102203240F021E030E0FC0133834B
:100B8000228380E090E015C080912F02E82FF0E0F2
:100B9000E553FC4F998190838F5F80932F02809360
:100BA000310205C061E0CE0101960E942A0581E074
:100BB00090E00F90DF91CF910895CF93DF93EC01F8
:100BC000AB01E0EDF9E064912A850E94A10EEAEC08
:100BD000F9E064914B81CE010E947D0E62E0CE016E
:100BE0000E94F20EE4ECF9E0E49141E050E001C033
:100BF000440FEA95EAF7482B62E0CE01DF91CF91EE
:100C00000C947D0E90E0FC01E155F64F2491FC011F
:100C1000E556F64F8491882399F090E0880F991F4C
:100C2000FC01EF56F64FA591B491FC01E957F64F40
:100C3000859194918FB7F894EC91E22BEC938FBF50
:100C40000895009769F0FC0101900020E9F73197C1
:100C5000AF01481B590BBC018EE392E00C946E0A65
:100C600080E090E008958F929F92AF92BF920F9391
:100C70001F93CF93DF93CDB7DEB7A1970FB6F8944C
:100C8000DEBF0FBECDBF19A2423008F44AE08E018C
:100C90000F5D1F4F842E912CA12CB12CA501940126
:100CA0000E943C1EE62FB901CA0101501109EA3029
:100CB00014F4E05D01C0E95CD801EC93232B242BF4
:100CC000252B61F7C8010E942106A1960FB6F89462
:100CD000DEBF0FBECDBFDF91CF911F910F91BF90AF
:100CE000AF909F908F9008954F925F926F927F92F6
:100CF0008F929F92AF92BF92CF92DF92EF92FF922C
:100D00006B017C01B42E9B01AC010E948D218823D4
:100D100019F086E491E027C026013701E89477F8BE
:100D20002FEF3FEF4FE75FE7C301B2010E948D2134
:100D300081110DC02FEF3FEF4FE75FE7C301B20115
:100D40000E94431F18161CF48AE491E00CC02FEF98
:100D50003FEF4FE75FE4C701B6010E94C9201816B4
:100D600084F48EE491E0FF90EF90DF90CF90BF90FD
:100D7000AF909F908F907F906F905F904F900C946A
:100D800021062FEF3FEF4FE75FECC701B6010E944E
:100D9000431F87FDE6CF20E030E0A901C701B6017F
:100DA0000E94431F87FF11C0E0913E02F0913F0275
:100DB0000190F081E02D6DE28EE392E009954C0107
:100DC000F7FAF094F7F8F09402C0812C912CA12C42
:100DD00060E070E080E09FE3AB1441F020E030E0A1
:100DE00040E251E40E94481FA394F6CF9B01AC015E
:100DF000C701B6010E94651E2B013C010E94C11F64
:100E00006B017C010E94F01F9B01AC01C301B20188
:100E10000E94641E2B013C014AE0C701B6010E94FA
:100E200033067C01E80CF91CBB2031F082E591E02F
:100E30000E942106E80EF91EDB2CDD2021F120E0C6
:100E400030E040E251E4C301B2010E94D6202B0100
:100E50003C010E94C11F4B01A12CB12C4AE0C501ED
:100E6000B4010E943306E80EF91EC501B4010E94C8
:100E7000F01F9B01AC01C301B2010E94641E2B0153
:100E80003C01DA94DACFC701FF90EF90DF90CF906A
:100E9000BF90AF909F908F907F906F905F904F909A
:100EA00008950C942106CF92DF92EF92FF92CF9398
:100EB000DF936C01990FEE08FF08F7FE1FC0E09169
:100EC0003E02F0913F020190F081E02D6DE28EE351
:100ED00092E00995EC0166277727CB016C197D0913
:100EE0008E099F094AE00E9433068C0F9D1FDF91F7
:100EF000CF91FF90EF90DF90CF9008954AE0C70127
:100F0000B601DF91CF91FF90EF90DF90CF900C94DE
:100F100033062091310290913002213208F04AC00C
:100F200080912D028111FCCF32E030932D0231E00F
:100F300030932C023FEF30932B0210922A02209321
:100F40002902ABECB3E049E052E0FA013E2F341B3A
:100F5000321718F43D913193F9CF10920802209185
:100F60000802990F922B90930802909107029130FA
:100F700061F410920702909108029093BB00909147
:100F8000BC0093FDF8CF95EC01C095EE9093BC00AA
:100F900090912D029230E1F390912B029F3F79F0D6
:100FA00080912B02803241F080912B02803331F00E
:100FB00084E005C081E003C082E001C083E01092BC
:100FC0002F021092310210922E020895EF92FF929A
:100FD0000F931F93CF93DF931F92CDB7DEB77A01A4
:100FE00089019E012F5F3F4F41E00E94A90C882399
:100FF00039F029812E7730E035952795F701208348
:101000000F90DF91CF911F910F91FF90EF90089576
:101010000F931F93662351F0462F9C0108EE13E0B7
:1010200064E780915B030E94A90C02C0FC0110825E
:101030001F910F9108950F93082F22E044E06BE178
:1010400080915B030E94C40D0F91089521E042E05E
:101050006AE680915B030C940F0E0F931F93CF935E
:10106000DF93CBE5D3E008EE13E02CE533E042E07C
:1010700062E788810E94A90C898190E0982F8827D7
:101080002A81822BDF91CF911F910F910895482FD4
:101090006EE680915B030C94990C2F923F924F92D5
:1010A0005F926F927F928F929F92AF92BF92CF92F8
:1010B000DF92EF92FF920F931F93CF93DF933C0148
:1010C0005B01342ED22F202E4F716DE680915B0391
:1010D0000E94990C8D2F0E94470880E190E00E94A9
:1010E000A7216C01002339F080E190E00E94A72144
:1010F000C82F492E02C0C0E0412CE12CF12CEA148B
:10110000FB0408F06EC0C7014096A816B90618F493
:101110005A2C5E1802C080E1582E852D90E020E008
:1011200031E02D1B31092817390714F45D2E519435
:10113000F301EE0DFF1D222059F09C2FAC2FB42D92
:101140008A2F891B851530F484918D933196F8CFC1
:10115000CE2F4F2E2C2F342D452D6FE680915B0323
:101160000E94340C852C912CC114D10429F1432DFB
:101170004F716DE680915B030E94990C8D2F0E9448
:10118000470808EE13E09601452D6FE680915B035A
:101190000E94A90CA401B6018C2F942D0E94A323B8
:1011A000892B51F0C6010E943C22222021F18C2F74
:1011B000942D0E943C221FC0E80CF91CD50DEA14A6
:1011C000FB0408F09CCFD11101C03394432D4F7123
:1011D0006DE680915B030E94990C8D2F0E94470859
:1011E0008ECFC6010E943C22222039F08C2F942DF4
:1011F0000E943C2202C080E001C081E0DF91CF91DB
:101200001F910F91FF90EF90DF90CF90BF90AF9024
:101210009F908F907F906F905F904F903F902F9016
:1012200008950F931F93CF93DF938C01C0E0D0E01C
:10123000F801EC0FFD1F6491662371F0E0913E020E
:10124000F0913F020190F081E02D8EE392E009954C
:10125000892B11F02196ECCFCE01DF91CF911F9118
:101260000F910895CF93DF930E941109EC018FE352
:1012700091E00E9421068C0F9D1FDF91CF91089570
:101280001F920F920FB60F9211242F933F934F93FB
:101290005F936F937F938F939F93AF93BF93EF93DE
:1012A000FF938091B900887F803609F49CC068F56F
:1012B000883209F45BC090F4803109F454C038F4EA
:1012C000882309F4F6C0883009F44DC0F6C088318F
:1012D00009F44CC0803209F45DC0EFC0803409F4D9
:1012E00068C048F4803309F455C0883309F0E5C07C
:1012F00080932B02D8C0803509F44FC0883509F49B
:101300005DC0883409F0D9C0D6C0883909F4C7C097
:10131000A8F4883709F467C038F4883609F463C044
:10132000803709F460C0C9C0883809F4B8C0803972
:1013300009F45FC0803809F0C0C05BC0803B09F48D
:1013400086C038F4803A09F466C0883A09F47FC050
:10135000B4C0803C09F4A7C0883C09F4A4C0883B11
:1013600009F48AC0AAC08091080210C090912A0294
:1013700080912902981770F5E0912A0281E08E0F82
:1013800080932A02F0E0E75FFD4F80818093BB00ED
:1013900085EC86C080932B028EC0E0912A0281E00A
:1013A0008E0F80932A028091BB00F0E0E75FFD4F33
:1013B000808390912A02809129026EC0E0912A02D6
:1013C00081E08E0F80932A028091BB00F0E0E75FFE
:1013D000FD4F808380912C0281116DC081E080934C
:1013E000070284EA61C083E080932D021092CA0351
:1013F000CFCF8091CA03803208F051C0E091CA0378
:1014000081E08E0F8093CA038091BB00F0E0E65527
:10141000FC4F8083BDCF85EC8093BC0010922D02E1
:101420008091CA03803230F4E091CA03F0E0E655BF
:10143000FC4F10826091CA0370E0E091A803F09124
:10144000A9038AEA93E009951092CA0336C084E0A2
:1014500080932D021092A7031092A603E091A4039B
:10146000F091A50309958091A603811105C081E043
:101470008093A60310928403E091A70381E08E0F6E
:101480008093A703F0E0EC57FC4F80818093BB0072
:101490009091A7038091A603981708F479CF85E867
:1014A0008093BC000AC085EC8093BC0010922D0292
:1014B00004C010922B020E942005FF91EF91BF9172
:1014C000AF919F918F917F916F915F914F913F91DC
:1014D0002F910F900FBE0F901F901895CF92DF9213
:1014E000EF92FF920F931F93CF93DF936C017A01DA
:1014F0008B01C0E0D0E0CE15DF0589F0D8016D91F9
:101500008D01D601ED91FC910190F081E02DC60195
:101510000995892B11F47E0102C02196ECCFC701F9
:10152000DF91CF911F910F91FF90EF90DF90CF90BF
:101530000895FC01918D828D981761F0828DDF01F5
:10154000A80FB11D5D968C91928D9F5F9F73928FB6
:1015500090E008958FEF9FEF0895FC01918D828DAB
:10156000981731F0828DE80FF11D858D90E0089578
:101570008FEF9FEF0895FC01918D228D892F90E0D0
:10158000805C9F4F821B91098F73992708958EE38A
:1015900092E00E94BB0A21E0892B09F420E0822F0F
:1015A0000895FC01848DDF01A80FB11DA35ABF4F20
:1015B0002C91848D90E001968F739927848FA68952
:1015C000B7892C93A089B1898C9180648C93938D79
:1015D000848D981306C00288F389E02D80818F7D69
:1015E00080830895EF92FF920F931F93CF93DF9321
:1015F000EC0181E0888F9B8D8C8D981305C0E88964
:10160000F989808185FD24C0F62E0B8D10E00F5FD7
:101610001F4F0F731127E02E8C8DE8120CC00FB6F0
:1016200007FCFACFE889F989808185FFF5CFCE01E3
:101630000E94D10AF1CF8B8DFE01E80FF11DE35A14
:10164000FF4FF0820B8FEA89FB898081806207C09F
:10165000EE89FF896083E889F989808180648083CD
:1016600081E090E0DF91CF911F910F91FF90EF907B
:101670000895CF93DF93EC01888D8823C9F0EA8920
:10168000FB89808185FD05C0A889B9898C9186FD7B
:101690000FC00FB607FCF5CF808185FFF2CFA88978
:1016A000B9898C9185FFEDCFCE010E94D10AE7CF99
:1016B000DF91CF91089580E090E0892B29F00E947E
:1016C000C70A81110C94000008950E949E231F9266
:1016D0000F920FB60F9211242F933F934F935F9366
:1016E0006F937F938F939F93AF93BF93EF93FF93EA
:1016F0008EE392E00E94D10AFF91EF91BF91AF91EA
:101700009F918F917F916F915F914F913F912F9119
:101710000F900FBE0F901F9018951F920F920FB64B
:101720000F9211242F938F939F93EF93FF93E09148
:101730004E02F0914F028081E0915402F0915502E7
:1017400082FD12C09081809157028F5F8F7320912C
:101750005802821751F0E0915702F0E0E25CFD4F31
:10176000958F8093570201C08081FF91EF919F91E7
:101770008F912F910F900FBE0F901F9018952F9261
:101780003F924F925F926F927F928F929F92AF9211
:10179000BF92CF92DF92EF92FF920F931F93CF935E
:1017A000DF93EC011B01C801B7010E94641E6B01AD
:1017B0007C01288939894A895B890E94651E2B0131
:1017C0003C01688B798B8A8B9B8B2C853D854E8564
:1017D0005F85C701B6010E94641E4B015C016C8BE2
:1017E0007D8B8E8B9F8B288139814A815B81C701DC
:1017F000B6010E94D6206B017C012C813D814E8177
:101800005F81C301B2010E94D6209B01AC01C701D8
:10181000B6010E94651E6B017C01288539854A85C9
:101820005B85C501B4010E94D6209B01AC01C701B4
:10183000B6010E94651EF1016083718382839383E8
:1018400081E0DF91CF911F910F91FF90EF90DF909A
:10185000CF90BF90AF909F908F907F906F905F9050
:101860004F903F902F900895EF92FF920F931F9308
:10187000CF93DF9300D0CDB7DEB7142F91E09093D4
:101880002E028093300210922F021092310282E3D6
:1018900092E029833A830E94AE052981022FE22E2D
:1018A0003A81F32E8E2D801B811740F4F701619150
:1018B0007F0182E392E00E94AE05F4CF0E94890787
:1018C00091E0811190E0892F0F900F90DF91CF91DF
:1018D0001F910F91FF90EF9008951F93CF93DF9387
:1018E00000D0CDB7DEB75A83498391E090932E02A2
:1018F0008093300210922F021092310282E392E024
:101900000E94AE0519816A8182E392E00E94AE05D1
:10191000612F82E392E00E94AE050E94890791E068
:10192000811190E0892F0F900F90DF91CF911F913F
:101930000895CF93DF931F92CDB7DEB749839E0101
:101940002F5F3F4F41E00E94340C0F90DF91CF9109
:1019500008952F923F924F925F926F927F928F9253
:101960009F92AF92BF92CF92DF92EF92FF920F932E
:101970001F93CF93DF93CDB7DEB727970FB6F894B9
:10198000DEBF0FBECDBF8F83962E742F59018FB748
:10199000F894C090EB03D090EC03E090ED03F0904E
:1019A000EE038FBF5F81550F5B83812C312C222486
:1019B000239450E05D834C832801612C712C8716A1
:1019C00008F0A4C020922E025F8150933002109242
:1019D0002F0210923102692D82E392E07E830E94F1
:1019E000AE050E94890720922E025F81509330023B
:1019F00010922F02109231027E8180912D0281116E
:101A0000FCCF2C813D81281931092132310514F098
:101A100020E230E0213208F020E220922D022092D4
:101A20002C028FEF80932B0210922A02820F809358
:101A3000290220920802809108024B81842B809316
:101A4000080280910702813071F4109207028091A0
:101A500008028093BB008091BC0083FDF8CF55EC59
:101A60005093BC0003C085EE8093BC0080912D0292
:101A70008130E1F380912A02821710F420912A022A
:101A8000A9E0B2E0E5EEF1E08E2F45EE51E0841BD7
:101A9000821718F48D918193F7CF1092060220934C
:101AA00005029091050280910602981749F10115EF
:101AB000110591F4A501430D511D37FC5A955A8328
:101AC000498382E392E07E830E946205E981FA8184
:101AD000808333947E81E5CF2FB7F8948091EB0318
:101AE0009091EC03A091ED03B091EE032FBF8C1900
:101AF0009D09AE09BF0984159505A605B705D0F265
:101B0000872F713208F080E2880E59CF0115110538
:101B100009F12FB7F8948091EB039091EC03A09119
:101B2000ED03B091EE032FBF8C199D09AE09BF09DB
:101B300020E030E080179107A207B30758F0272F65
:101B400030E0832D032C000C990B8217930714F4BB
:101B500033243A94832D27960FB6F894DEBF0FBE38
:101B6000CDBFDF91CF911F910F91FF90EF90DF904C
:101B7000CF90BF90AF909F908F907F906F905F902D
:101B80004F903F902F900895BF92CF92DF92EF92A7
:101B9000FF920F931F93CF93DF931F92CDB7DEB7C2
:101BA000F82EE62EC42EB22ED02E08EE13E09E01A3
:101BB0002F5F3F4F41E00E94A90C882321F1EC2DBB
:101BC000F0E0EB19F109319621E030E002C0220F7C
:101BD000331FBA94E2F7215031090E2E01C0220FB3
:101BE0000A94EAF78D2D01C0880FEA95EAF7422F93
:101BF0004095998149232823422B49836E2D8F2DAF
:101C00000E94990C01C080E00F90DF91CF911F914D
:101C10000F91FF90EF90DF90CF90BF900895CF92FB
:101C2000DF92EF92FF920F931F93CF93DF931F9258
:101C3000CDB7DEB7F82EE62ED42EC22E08EE13E076
:101C40009E012F5F3F4F41E00E94A90C9981CC205B
:101C500041F041E050E001C0440FDA94EAF7492B2B
:101C600009C021E030E0A90101C0440FDA94EAF78D
:101C70004095492349836E2D8F2D0E94990C0F901A
:101C8000DF91CF911F910F91FF90EF90DF90CF9058
:101C9000089561E0FC0181810E94B00F86E090E030
:101CA0000197F1F7089560E0FC0181810E94B00F77
:101CB00086E090E00197F1F70895FC018081918121
:101CC00089130C94B00F08958EBD00000DB407FE6B
:101CD000FDCF8EB508951F93CF93DF93EC010E9443
:101CE000530E81EE0E94640E182FCE010E94490E01
:101CF000812FDF91CF911F910895EF92FF921F9353
:101D0000CF93DF9300D0CDB7DEB77C014A836983E0
:101D10000E94530E6981862F8F7180620E94640E2B
:101D2000182F4A81842F0E94640EC7010E94490E19
:101D3000812F0F900F90DF91CF911F91FF90EF9027
:101D40000895CF92DF92EF92FF920F931F93CF935C
:101D5000DF9300D01F92CDB7DEB77C01142F2A830A
:101D60005B8369830E94530E6981862F8F71806225
:101D70000E94640E082FC12E5B81D52E2A81120F7E
:101D80001C1531F0F60181916F010E94640EF8CFAD
:101D9000C7010E94490E802F0F900F900F90DF9186
:101DA000CF911F910F91FF90EF90DF90CF9008950A
:101DB0000F931F93CF93DF93EC018B012A85AB0127
:101DC0006AE00E94A10E2A85A80160E1CE010E946E
:101DD000A10E4B8161E1CE01DF91CF911F910F9157
:101DE0000C947D0EEF92FF921F93CF93DF931F927F
:101DF000CDB7DEB77C0169830E94530E6981862FBF
:101E00008F710E94640E8FEF0E94640E182FC7011D
:101E10000E94490E812F0F90DF91CF911F91FF906B
:101E2000EF900895EF92FF920F931F93CF938C0141
:101E30007B0166E00E94F20EC82FC77D82E0E816A3
:101E4000F10431F4C0628BE990E0A0E0B0E00DC095
:101E5000EA94EF2829F085E590E0A0E0B0E005C025
:101E6000C86081E490E0A0E0B0E0F8018387948747
:101E7000A587B6874C2F66E0C8010E947D0E66E0FC
:101E8000C8010E94F20E91E08C1390E0892FCF914F
:101E90001F910F91FF90EF900895CF93DF93EC0186
:101EA00060E00E94F20E81FD12C060E0CE010E944F
:101EB000F20E482F426060E0CE010E947D0E65E088
:101EC00070E080E090E0DF91CF910C947F10DF9183
:101ED000CF910895CF93DF93EC010E944D0F60E006
:101EE000CE010E94F20E482F416060E0CE010E94B8
:101EF0007D0E40E767E0CE010E947D0E61E0CE01DD
:101F00000E945D0E8D81882349F02A85AE014B5FCA
:101F10005F4F6AE0CE010E94A10E14C062E0CE01C4
:101F20000E94F20EE3ECF9E0E49121E030E001C020
:101F3000220FEA95EAF72095422F482362E0CE016E
:101F40000E947D0E6DE1CE010E94F20E81FF05C060
:101F5000CE01DF91CF910C946B0EDF91CF9108955C
:101F600090E0FC01EB52F64F3491FC01E155F64F45
:101F70002491FC01E556F64FE491EE2309F43BC0B1
:101F8000332339F1333091F038F43130A9F0323065
:101F900001F584B58F7D12C0373091F03830A1F053
:101FA0003430B9F4809180008F7D03C0809180002F
:101FB0008F77809380000DC084B58F7784BD09C072
:101FC0008091B0008F7703C08091B0008F7D8093A7
:101FD000B000F0E0EE0FFF1FE957F64FA591B49166
:101FE0008FB7F894EC91611103C020952E2301C0A6
:101FF0002E2B2C938FBF08951F93CF93DF93182F11
:10200000EB010E940206209711F460E004C0CF3F6C
:10201000D10539F461E0812FDF91CF911F910C94AC
:10202000B00FE12FF0E0EB52F64FE491E330F9F01E
:1020300048F4E130B9F0E230A1F584B5806284BDA6
:10204000C8BD34C0E730E9F0E83019F1E43049F5B3
:1020500080918000806280938000D0938B00C09339
:102060008A0024C084B5806884BDC7BD1FC080912C
:102070008000806880938000D0938900C09388009E
:1020800015C08091B00080688093B000C093B30009
:102090000DC08091B00080628093B000C093B40006
:1020A00005C0C038D1050CF0B5CFAFCFDF91CF91CF
:1020B0001F9108953FB7F8948091F0039091F10338
:1020C000A091F203B091F30326B5A89B05C02F3F62
:1020D00019F00196A11DB11D3FBFBA2FA92F982F4E
:1020E0008827820F911DA11DB11DBC01CD0143E0C8
:1020F000660F771F881F991F4A95D1F708958F9211
:102100009F92AF92BF92CF92DF92EF92FF926B01BC
:102110007C010E945A104B015C01C114D104E104FE
:10212000F104F1F00E945A10DC01CB0188199909E1
:10213000AA09BB09883E9340A105B10570F321E0CF
:10214000C21AD108E108F10888EE880E83E0981ED3
:10215000A11CB11CC114D104E104F10419F7DDCFB5
:10216000FF90EF90DF90CF90BF90AF909F908F90B7
:1021700008951F920F920FB60F9211242F933F9341
:102180008F939F93AF93BF938091EB039091EC0358
:10219000A091ED03B091EE033091EF0326E0230F01
:1021A0002D3720F40296A11DB11D05C029E8230F8B
:1021B0000396A11DB11D2093EF038093EB03909331
:1021C000EC03A093ED03B093EE038091F0039091A4
:1021D000F103A091F203B091F3030196A11DB11D8B
:1021E0008093F0039093F103A093F203B093F30371
:1021F000BF91AF919F918F913F912F910F900FBE03
:102200000F901F901895CF93DF93CDB7DEB7CE5ABE
:10221000D1090FB6F894DEBF0FBECDBF789484B558
:10222000826084BD84B5816084BD85B5826085BDD2
:1022300085B5816085BD80916E00816080936E0060
:102240001092810080918100826080938100809152
:102250008100816080938100809180008160809303
:1022600080008091B10084608093B1008091B000C3
:1022700081608093B00080917A00846080937A00BE
:1022800080917A00826080937A0080917A008E7FBC
:1022900080937A0080917A00806880937A0010920F
:1022A000C10087E00E94020661E087E00E94B00F53
:1022B000109206021092050210922F021092310223
:1022C00010922D0281E080932C021092070261E0AF
:1022D00082E10E94B00F61E083E10E94B00F809123
:1022E000B9008E7F8093B9008091B9008D7F809373
:1022F000B90080E28093B80085E48093BC0082E05E
:102300008093B800E0914E02F0914F028083E091FB
:102310004A02F0914B021082E0914C02F0914D0282
:1023200088E0808310925602E0915202F0915302AD
:1023300086E08083E0915002F091510280818061BB
:102340008083E0915002F091510280818860808307
:10235000E0915002F0915102808180688083E09189
:102360005002F091510280818F7D808301E023E053
:1023700042E06BE680915B030E94C40D80E00E9406
:102380001B0800E022E044E06CE180915B030E94C6
:10239000C40D20E046E06BE680915B030E940F0EC7
:1023A00042E650E063E180915B030E946D0C47E0E0
:1023B00050E065E180915B030E946D0C49E150E0C3
:1023C00067E180915B030E946D0C41EF5FEF66E077
:1023D00080915B030E946D0C49E75AEF68E08091A1
:1023E0005B030E946D0C45E153E06AE080915B0362
:1023F0000E946D0C83E00E941B0828EE33E04CE540
:1024000053E065E780915B030E94E60780915C03DF
:10241000843319F08EE399E002C088E599E00E94C8
:10242000320986E799E00E94320921E047E06BE635
:1024300080915B030E940F0E6EE170E080E090E0FF
:102440000E947F1020E046E06BE680915B030E94D3
:102450000F0E40E76DE680915B030E94990C86E0C9
:102460000E94470840E06DE680915B030E94990C52
:1024700028EE33E04CE553E060E080915B030E947E
:10248000E60780905C0328EE33E04CE553E061E022
:1024900080915B030E94E60790905C0328EE33E096
:1024A0004CE553E062E080915B030E94E607A09058
:1024B0005C034FE765E280915B030E94990C20E08A
:1024C00045E06AE680915B030E940F0E48E665E2F4
:1024D00080915B030E94990C21E041E06AE68091C3
:1024E0005B030E940F0E64E170E080E090E00E94C8
:1024F0007F1001E020E040E069E877E085E891E0C6
:102500000E944D08882309F4E3C288E090E00E940D
:10251000A721B82E192FE12CF12CF701EB53FF4F17
:102520004491F701EA53FF4F2491670133E0C30E52
:10253000D11CF701E953FF4FE491EE23D1F1EE2EC8
:10254000F12CE330D8F0B7018B2D912FC255DF4F1E
:102550002883CE5AD040C355DF4F4883CD5AD04050
:102560000E94D422B82E192FC355DF4F4881CD5A6F
:10257000D040C255DF4F2881CE5AD040AB2DB12F6D
:1025800080E090E08E159F0548F4F601E80FF91FF2
:10259000EB53FF4FE491ED930196F4CF00E0B701C8
:1025A0008B2D912F0E944D08EC0CFD1C811117C042
:1025B00010C084E0E80EF11CF601EB53FF4FE491EC
:1025C000E13039F442E368E380915B030E94990CA7
:1025D00006C08B2D912F0E943C2212E07AC290EC13
:1025E000E916F10408F499CF8B2D912F0E943C221B
:1025F00003E023E042E06BE680915B030E94C40DA0
:1026000042E168E380915B030E94990C44E069E138
:1026100080915B030E94990C01E023E045E06AE1B0
:1026200080915B030E94C40D03E023E042E06AE175
:1026300080915B030E94C40D83E00E941B0843E06D
:1026400060E780915B030E94990C40E061E7809114
:102650005B030E94990C20E040E060E080915B0306
:102660000E940F0E082D26E046E060E080915B039B
:102670000E94C40D092D26E046E061E080915B03D5
:102680000E94C40D0A2D26E046E062E080915B03C3
:102690000E94C40DE12CF12CF701EA56FF4FE491A2
:1026A000A1E8B0E0AC0FBD1FAE0DB11DEC9381E011
:1026B0008E0DAFEFEA1AFA0AB3E0BE1568F7CD57F0
:1026C000DF4F6881C358D04070E09B012E5F3F4FC1
:1026D00090E02817390704F700E0CE57DF4F288134
:1026E000C258D040CF57DF4F4881C158D04081E811
:1026F00090E08C0F9D1F03960E944D0880E0F7012B
:10270000EA56FF4FE491A1E8B0E0AC0FBD1FA80F5F
:10271000B11DEC938F5FEFEFEE1AFE0A843078F371
:10272000CD57DF4F6881C358D04070E0AB014E5F9A
:102730005F4F282F30E0421753070CF700E0CE57C9
:10274000DF4F2881C258D040CF57DF4F4881C15852
:10275000D04081E890E08C0F9D1F03960E944D08A9
:102760000E9426080E942D08682FCE0101960E9423
:10277000080842E06FE180915B030E94990C4CE9EC
:1027800061E280915B030E94990C40E560E28091D8
:102790005B030E94990C40E062E280915B030E941F
:1027A000990C0E94260821E046E06AE680915B03CE
:1027B0000E940F0E21E047E06AE680915B030E94D1
:1027C0000F0E21E043E06AE680915B030E940F0E4A
:1027D00080E0F701EA56FF4FE491A1E8B0E0AC0FCA
:1027E000BD1FA80FB11DEC938F5FFFEFEF1AFF0A1B
:1027F000843078F3CD57DF4F6881C358D04070E004
:10280000AB014E5F5F4F282F30E0421753070CF7A4
:1028100000E0CE57DF4F2881C258D040CF57DF4F5E
:102820004881C158D04081E890E08C0F9D1F0396ED
:102830000E944D0880E0F701EA56FF4FE491A1E8BD
:10284000B0E0AC0FBD1FA80FB11DEC938F5F2FEF51
:10285000E21AF20A843078F3CD57DF4F6881C3580B
:10286000D04070E0AB014E5F5F4F282F30E0421741
:1028700053070CF700E0CE57DF4F2881C258D040F5
:10288000CF57DF4F4881C158D04081E890E08C0F8E
:102890009D1F03960E944D0880E0F701EA56FF4F06
:1028A000E491A1E8B0E0AC0FBD1FA80FB11DEC93FF
:1028B0008F5F3FEFE31AF30A843078F3CD57DF4F91
:1028C0006881C358D04070E0AB014E5F5F4F282F46
:1028D00030E0421753070CF700E0CE57DF4F288156
:1028E000C258D040CF57DF4F4881C158D04081E80F
:1028F00090E08C0F9D1F03960E944D080E942D08AA
:1029000083309105D8F3682FCE0101960E94080804
:1029100080E0F701EA56FF4FE491A1E8B0E0AC0F88
:10292000BD1FA80FB11DEC938F5F9FEFE91AF90A45
:10293000843078F3CD57DF4F3880C358D040832C94
:10294000912CA4014E5F5F4F282F30E042175307B0
:1029500004F7CE57DF4FD880C258D040CF57DF4F53
:102960002880C158D040422D4F716DE680915B03A5
:102970000E94990C8D2D0E944708A12CB12C612C2E
:102980007724739481E8482E512C4C0E5D1EA3E0F1
:102990004A0E511CA814B90498F5C5014096881632
:1029A000990618F4C32CCA1802C010E1C12E8C2D50
:1029B00090E093012D1931092817390714F4CD2C13
:1029C000C19492012A0D3B1D08EE13E04C2D6FE6D9
:1029D00080915B030E94A90CAC0CB11CDC0CA81408
:1029E000B904C0F6D11001C02394422D4F716DE699
:1029F00080915B030E94990C8D2D0E944708CACFDD
:102A00000E942D0883309105D8F3682FCE010196DE
:102A10000E940808F701EA56FF4F80E09491A1E870
:102A2000B0E0AC0FBD1FA80FB11D9C938F5F843029
:102A300010F43196F3CFCD57DF4F6881C358D040A3
:102A400070E0AB014E5F5F4F282F30E04217530715
:102A500084F700E0CE57DF4F2881C258D040CF57CF
:102A6000DF4F4881C158D04081E890E08C0F9D1F16
:102A700003960E944D0820E047E06AE680915B03E0
:102A80000E940F0E8AE290E090935E0380935D03B4
:102A90000E94260808EE13E02CE533E041E06AE3EB
:102AA00080915B030E94A90C81E399E00E943209A6
:102AB00021E047E06AE680915B030E940F0E80915F
:102AC0005D0390915E039093C3018093C2010DC09A
:102AD00011E080E199E00E941109812F90E00E94AD
:102AE00053078EE099E00E94320984E00E940206BA
:102AF00087E00E94020688E00E94020683E00E94AE
:102B0000020685E00E94020689E00E9402068AE031
:102B10000E9402061092D0011092D1011092D201AF
:102B20001092D3011092D4011092D5011092D601C7
:102B30001092D7011092D8011092D9011092DA01A7
:102B40001092DB011092DC011092DD011092DE0187
:102B50001092DF011092E0011092E1011092E20167
:102B60001092E3011092E40100916E0310916F0343
:102B7000F8018081918189130E940206D801119683
:102B80008C910E940206FFB6F89480915401811145
:102B900024C0E5EAF9E08491E9EBF9E09491E82FAB
:102BA000F0E0EE0FFF1FEF56F64FA591B491EC91B8
:102BB000E92321F461E08AE00E94B00F8AE00E94DC
:102BC00002068CB580618CBD8CB580648CBD8DE0B7
:102BD0000E9402068BE00E940206809154018F5FE2
:102BE00080935401FFBE60E0C8010E945D0E61E069
:102BF000F80181810E94B00F86E090E00197F1F723
:102C000065E070E080E090E00E947F104CE060E0C2
:102C1000C8010E947D0E4FE564E0C8010E947D0E50
:102C200062E070E0C8010E94120F882321F081E069
:102C3000D80112968C9360E070E0C8010E94120FD8
:102C4000C8010E94530E80E50E94640E83E70E9433
:102C5000640EC8010E94490E40E06DE1C8010E9467
:102C60007D0E40E06CE1C8010E947D0E40E767E008
:102C7000C8010E947D0E4CE465E0C8010E947D0EF3
:102C8000C8010E94530E82EE0E94640EC8010E9489
:102C9000490EC8010E946B0EC8010E944D0F60E0F2
:102CA000C8010E94F20E482F4E7F60E0C8010E94CA
:102CB0007D0E00916E0310916F0366E0C8010E94C3
:102CC000F20E887F482F456066E0C8010E947D0EA5
:102CD00080916E0390916F0325E1FC012383409165
:102CE0007003403808F04FE765E00E947D0E62E017
:102CF00070E080916E0390916F030E94120F00911B
:102D00006E0310916F0360E0C8010E94F20E482F1D
:102D10004C6060E0C8010E947D0E20917303809199
:102D20006E0390916F03222339F068E071E00E94F6
:102D3000D80E60E071E006C060E071E00E94D80E3D
:102D400068E071E080916E0390916F030E94DD0551
:102D500080916E0390916F030E946A0F60E087E09C
:102D60000E94B00F61E084E00E94B00F61E087E054
:102D70000E94B00F61E088E00E94B00F89E391E00B
:102D80000E9421068FE391E00E94210660E777E12F
:102D900080E090E00E947F1022242A94312C0E942F
:102DA0005A10C555DF4F79836883CB5AD04067E10D
:102DB00080916E0390916F030E94F20E80FF44C6D3
:102DC00082E491E00E9451076091D00170E080E0C0
:102DD00090E04AE00E94330684E491E00E945107AB
:102DE0006091D10170E080E090E04AE00E943306FB
:102DF00084E491E00E9451076091D20170E080E08C
:102E000090E04AE00E94330684E491E00E9451077A
:102E10006091D30170E080E090E04AE00E943306C8
:102E200084E491E00E9451078091D401082E000CA7
:102E3000990B0E94530784E491E00E94510780910E
:102E4000D501082E000C990B0E94530784E491E0F1
:102E50000E9451078091D601082E000C990B0E9408
:102E6000530784E491E00E9451076091D80170E01B
:102E700080E090E04AE00E94330684E491E00E9402
:102E800051076091D70170E080E090E04AE00E9435
:102E9000330684E491E00E9451076091D90170915A
:102EA000DA018091DB019091DC0142E00E9474061E
:102EB00084E491E00E9451076091DD017091DE0190
:102EC0008091DF019091E00142E00E94740684E469
:102ED00091E00E9451076091E1017091E2018091BF
:102EE000E3019091E40142E00E9474068FE391E0D7
:102EF0000E9421062091D001C755DF4F2883C95A6F
:102F0000D0401092C4011092C5011092C6011092D7
:102F1000C7016091D20170E080E090E00E94F21F52
:102F200020E030E043E053E40E94641E20E030E003
:102F300048EF52E40E94481F20E030E040EA51E4AC
:102F40000E94D6206093C8017093C9018093CA0182
:102F50009093CB016091D30170E080E090E00E94FB
:102F6000F21F20E030E040E053E40E94641E20E0C5
:102F700030E04EEF52E40E94481F20E030E040EA8B
:102F800051E40E94D6206093CC017093CD018093D0
:102F9000CE019093CF010E9426080E942D086091D7
:102FA000C2017091C30186179707B8F382E891E0D8
:102FB0000E9408080091860110E0102F00278091E0
:102FC0008701082BC0908A01D12CDC2CCC24809165
:102FD0008B01C82AE0908E01F12CFE2CEE2480910A
:102FE0008F01E82A6091820170E0762F6627809138
:102FF0008301682B072E000C880B990B0E94F21F8F
:1030000020E030E040E858E30E94D6202B013C014C
:1030100060934B0370934C0380934D0390934E0346
:10302000B801110F880B990B0E94F21F20E030E0CD
:1030300040E858E30E94D6204B015C0160934F03A7
:10304000709350038093510390935203B601DD0CAB
:10305000880B990B0E94F21F20E030E040E858E313
:103060000E94D620CF56DF4F688379838A839B8363
:10307000C159D04060935303709354038093550318
:1030800090935603B701FF0C880B990B0E94F21F17
:1030900020E030E040E858E30E94D620CB56DF4FD6
:1030A000688379838A839B83C559D0406093570393
:1030B000709358038093590390935A039B01AC017A
:1030C000C501B4010E94D6206B017C01CF56DF4FB1
:1030D000288139814A815B81C159D040C301B20145
:1030E0000E94D6209B01AC01C701B6010E94641E5C
:1030F0009B01AC010E94651EC756DF4F6883798330
:103100008A839B83C959D04060933F0370934003E7
:103110008093410390934203A5019401C301B2013E
:103120000E94D6206B017C01CB56DF4F288139816C
:103130004A815B81C559D040CF56DF4F6881798184
:103140008A819B81C159D0400E94D6209B01AC014D
:10315000C701B6010E94651E9B01AC010E94651E5D
:10316000C356DF4F688379838A839B83CD59D040D0
:103170006093430370934403809345039093460305
:10318000A3019201C301B2010E94D6206B017C0110
:10319000A5019401C501B4010E94D6209B01AC0198
:1031A000C701B6010E94641E6B017C01CF56DF4F40
:1031B000288139814A815B81C159D040CA01B90156
:1031C0000E94D6209B01AC01C701B6010E94641E7B
:1031D0006B017C01CB56DF4F288139814A815B81AD
:1031E000C559D040CA01B9010E94D6209B01AC014B
:1031F000C701B6010E94651E6B017C016093470305
:10320000709348038093490390934A03A30192016A
:10321000C301B2010E94651ECF55DF4F68837983D9
:103220008A839B83C15AD040A5019401C501B40192
:103230000E94651ECB55DF4F688379838A839B8309
:10324000C55AD040A3019201CF55DF4F68817981E3
:103250008A819B81C15AD0400E94D6202B013C011B
:10326000A5019401CB55DF4F688179818A819B81CB
:10327000C55AD0400E94D6209B01AC01C301B201C7
:103280000E94651E20E030E040E85FE30E94641E7B
:103290002B013C01CF56DF4F288139814A815B8168
:1032A000C159D040CB55DF4F688179818A819B819C
:1032B000C55AD0400E94D6204B015C01CB56DF4F4F
:1032C000288139814A815B81C559D040CF55DF4F74
:1032D000688179818A819B81C15AD0400E94D62021
:1032E0009B01AC01C501B4010E94641EA3019201BF
:1032F0000E94E41E4B015C0160937601709377019C
:103300008093780190937901A7019601C701B601D6
:103310000E94D6202B013C01C356DF4F2881398102
:103320004A815B81CD59D040CA01B9010E94D620A3
:10333000A30192010E94651E0E9449219B01AC01DC
:10334000C756DF4F688179818A819B81C959D040F6
:103350000E94481F0E94141F6B017C0160937A0138
:1033600070937B0180937C0190937D01C756DF4F62
:10337000288139814A815B81C959D040CA01B9018C
:103380000E94D620A30192010E94651E0E9449213D
:103390009B01AC01C356DF4F688179818A819B8193
:1033A000CD59D0400E94481F0E94141F2B013C01A0
:1033B00060937E0170937F018093800190938101DF
:1033C00020E030E044E353E4C501B4010E94D6207C
:1033D0002BED3FE049E450E40E94481F60936A01EE
:1033E00070936B0180936C0190936D0120E030E04D
:1033F00044E353E4C701B6010E94D6202BED3FE021
:1034000049E450E40E94481F60936E0170936F017D
:10341000809370019093710120E030E044E353E425
:10342000C301B2010E94D6202BED3FE049E450E4F5
:103430000E94481F6093720170937301809374011E
:1034400090937501EBE4F3E0ABEDB2E080E1019025
:103450000D928A95E1F7E6E7F1E0ABEEB2E08CE0A1
:1034600001900D928A95E1F700916E0310916F0320
:1034700060E0C8010E945D0ED8011B968D919C9161
:103480001C978330910528F0880F991F04970197A6
:10349000F1F76DE1C8010E94F20E81FF0EC0F80144
:1034A000838594858330910528F0880F991F0497B0
:1034B0000197F1F7C8010E946B0E60E0C8010E94FD
:1034C000F20E482F4E7F60E0C8010E947D0E62E040
:1034D000C8010E94F20EE3ECF9E0949121E030E0A3
:1034E00001C0220F9A95EAF7482F422B62E0C801EB
:1034F0000E947D0E00916E0310916F03D801139608
:103500009C91C92E9D3110F02CE1C22EF8018481CE
:10351000811103C0D92EDC1801C0D12CC8010E9432
:10352000530E80EA0E94640E8BEDE82E82E0F82EA6
:10353000CA94BFEFCB1631F0D7018D917D010E9467
:10354000640EF6CFFD2CFF2029F080E00E94640E6F
:10355000FA94F9CFC8010E94490E61E0C8010E94A7
:103560005D0EC8010E94530E8FEF0E94640EF82E6C
:10357000C8010E94490E8F2D807399F360E0C80145
:103580000E945D0E40E767E0C8010E947D0E84FF47
:1035900003C0C8010E946B0E80916E0390916F036F
:1035A0000E946A0F06E711E0F80161917191819123
:1035B00091918F0142E00E9474068FE391E00E9496
:1035C0002106F1E002381F0779F7C755DF4F288140
:1035D000C95AD040622F70E080E090E00E94F21F54
:1035E00020E030E048EF52E40E94641E20E030E02A
:1035F00043E053E40E94481F2B013C01E0906A0124
:10360000F0906B0100916C0110916D012091C4014B
:103610003091C5014091C6015091C7016EE571E03E
:1036200087E293E00E94BF0BE0906E01F0906F0183
:1036300000917001109171012091C8013091C90170
:103640004091CA015091CB0162E671E08FE093E0B6
:103650000E94BF0BE0907201F09073010091740121
:10366000109175012091CC013091CD014091CE0196
:103670005091CF0166E671E087EF92E00E94BF0BA8
:1036800020E030E048EC52E4C301B2010E94D620B1
:103690000E94C11F60935D0170E080E090E00E9495
:1036A000F21F4B015C0180915E0190915F01A0913E
:1036B0006001B0916101C756DF4F88839983AA8367
:1036C000BB83C959D0409C01AD01C501B4010E9422
:1036D000641E6B017C018091660190916701A0914D
:1036E0006801B0916901CF56DF4F88839983AA831F
:1036F000BB83C159D0408091620190916301A09138
:103700006401B0916501CB56DF4F88839983AA830A
:10371000BB83C559D040C756DF4F288139814A81C4
:103720005B81C959D040C501B4010E94651E4B019F
:103730005C01CF56DF4F288139814A815B81C159B5
:10374000D040C701B6010E94651ECB56DF4F2881CD
:1037500039814A815B81C559D0400E94651E0E9413
:10376000BA1F072E000C880B990B0E94F21FA301B1
:1037700092010E94D6200E94BA1FC756DF4F68836D
:1037800079838A839B83C959D040C756DF4FA8816C
:10379000B981C959D040CF55DF4FB983A883C15AE9
:1037A000D040B0935C01A0935B01CF56DF4F2881DE
:1037B00039814A815B81C159D040C701B6010E945D
:1037C000641ECB56DF4F288139814A815B81C55900
:1037D000D0400E94641E0E94BA1F072E000C880B66
:1037E000990B0E94F21FA30192010E94D6200E9411
:1037F000BA1FC356DF4F688379838A839B83CD5971
:10380000D040C356DF4F28813981CD59D040CB55A8
:10381000DF4F39832883C55AD04030935A01209313
:103820005901CF56DF4F288139814A815B81C159C7
:10383000D040C501B4010E94651ECB56DF4F2881E0
:1038400039814A815B81C559D0400E94641E0E9423
:10385000BA1F072E000C880B990B0E94F21FA301C0
:1038600092010E94D6200E94BA1F6B017C01C755AD
:10387000DF4F79836883C95AD040709358016093B1
:103880005701CF56DF4F288139814A815B81C15969
:10389000D040C501B4010E94641ECB56DF4F288181
:1038A00039814A815B81C559D0400E94651E0E94C2
:1038B000BA1F072E000C880B990B0E94F21FA30160
:1038C00092010E94D6200E94BA1F4B015C01072E74
:1038D000000C880B990B0E94F21F20E030E04FE7AC
:1038E00053E40E94C92018162CF4309256012092FD
:1038F00055010BC097FC05C090925601809255016E
:1039000004C01092560110925501C756DF4FA8818E
:10391000B981C959D040BD01BB0F880B990B0E94DA
:10392000F21F20E030E04FE753E40E94C920181650
:103930002CF430925C0120925B010CC0CF55DF4F1C
:10394000E881F981C15AD040F7FF04C010925C01B0
:1039500010925B01C356DF4F28813981CD59D04089
:10396000B901330F880B990B0E94F21F20E030E061
:103970004FE753E40E94C92018162CF430925A01E4
:10398000209259010CC0CB55DF4F88819981C55ACF
:10399000D04097FF04C010925A0110925901B6010D
:1039A000DD0C880B990B0E94F21F20E030E04FE7FE
:1039B00053E40E94C92018162CF43092580120922A
:1039C00057010CC0C755DF4FA881B981C95AD040F3
:1039D000B7FF04C010925801109257016091550131
:1039E0007091560183E00E94FC0F60915901709123
:1039F0005A0185E00E94FC0F6091570170915801B7
:103A000089E00E94FC0F60915B0170915C018AE08B
:103A10000E94FC0FC555DF4FE881F981CB5AD04099
:103A20006F01FF0FEE08FF080E945A10DC01CB0166
:103A30008C199D09AE09BF0980349F41A105B105CC
:103A400098F30E945B0BABC9E0906E03F0906F039C
:103A5000D70113961C91153160F105E1D701149639
:103A60008C91811102C0101B01C010E0C7010E949F
:103A7000530E81E60E94640EF0EDCF2EF1E0DF2EB2
:103A8000015038F08FEF0E94640EF60181936F01B0
:103A9000F7CF112329F08FEF0E94640E1150F9CF58
:103AA000C7010E94490E40E767E0C7010E947D0EF2
:103AB0007EC9012FD3CFE2E3F2E01382128288EEB7
:103AC00093E0A0E0B0E084839583A683B7832CE1E4
:103AD00031E031832083EEE3F2E0138212828483AB
:103AE0009583A683B7838CE291E09183808385ECF4
:103AF00090E09587848784EC90E09787868780ECB8
:103B000090E0918B808B81EC90E0938B828B82ECA8
:103B100090E0958B848B86EC90E0978B868B118E52
:103B2000128E138E148EE4E7F3E08FE080838EE034
:103B30008183128280E28383148285E082871582EA
:103B4000AEE6B3E01196FC93EE938EE112968C9361
:103B5000129714961C921E92139781E015968C93DF
:103B600088E680935B03EBE4F3E080E090E0A0E87C
:103B7000BFE380839183A283B3831482158216826C
:103B8000178210861186128613861486158616866D
:103B90001786EFE3F3E010821182128213821482FF
:103BA0001582168217821086118612861386E7E226
:103BB000F3E010821182128213821482158216821F
:103BC000178210861186128613861486158616862D
:103BD0001786108A118A128A138A148A158A168AFD
:103BE000178AEFE0F3E040E050E060E07FE34083DD
:103BF0005183628373831482158216821782108622
:103C00001186128613861486158616861786108AE4
:103C1000118A128A138A148A158A168A178AE7EF7C
:103C2000F2E040835183628373831482158216828B
:103C300017821086118612861386148615861686BC
:103C40001786108A118A128A138A148A158A168A8C
:103C5000178AEBEDF2E080839183A283B383148211
:103C60001582168217821086118612861386148694
:103C70001586168617860895A1E21A2EAA1BBB1B6D
:103C8000FD010DC0AA1FBB1FEE1FFF1FA217B30728
:103C9000E407F50720F0A21BB30BE40BF50B661F3E
:103CA000771F881F991F1A9469F760957095809502
:103CB00090959B01AC01BD01CF010895EE0FFF1F50
:103CC0000590F491E02D09945058BB27AA270E9433
:103CD0007C1E0C948F200E94812038F00E94882046
:103CE00020F039F49F3F19F426F40C9457200EF479
:103CF000E095E7FB0C945120E92F0E94A02058F397
:103D0000BA17620773078407950720F079F4A6F5C0
:103D10000C94C2200EF4E0950B2EBA2FA02D0B01AF
:103D2000B90190010C01CA01A0011124FF27591B00
:103D300099F0593F50F4503E68F11A16F040A22F06
:103D4000232F342F4427585FF3CF46953795279577
:103D5000A795F0405395C9F77EF41F16BA0B620B76
:103D6000730B840BBAF09150A1F0FF0FBB1F661FBD
:103D7000771F881FC2F70EC0BA0F621F731F841F00
:103D800048F4879577956795B795F7959E3F08F026
:103D9000B0CF9395880F08F09927EE0F97958795E8
:103DA00008950E94812060F080E891E009F49EEF80
:103DB0000E94882028F040E851E071F45EEF0CC0CA
:103DC0000C9457200C94C220E92FE0780E94A02088
:103DD00040F3092E052AB1F326173707480759077C
:103DE00038F00E2E07F8E02569F0E025E0640AC0FF
:103DF000EF6307F8009407FADB01B9019D01DC01CC
:103E0000CA01AD01EF930E945F1F0E948F200E94A4
:103E1000141F5F91552339F02BED3FE049E450FD2D
:103E200049EC0C94651E0895DF93DD27B92FBF7709
:103E300040E85FE31616170648075B0718F4D92F0A
:103E40000E94CE209F938F937F936F930E9489212E
:103E5000E8E6F0E00E945A200E948F202F913F91C7
:103E60004F915F910E94E920DD2351F09058A2EA22
:103E70002AED3FE049EC5FE3D0785D270E947C1E8D
:103E8000DF910C948F200E942D2008F481E008958A
:103E90000E945C1F0C948F200E94882058F00E9482
:103EA000812040F029F45F3F29F00C9451205111FA
:103EB0000C94C3200C9457200E94A02068F39923EF
:103EC000B1F3552391F3951B550BBB27AA27621716
:103ED0007307840738F09F5F5F4F220F331F441F23
:103EE000AA1FA9F335D00E2E3AF0E0E832D0915057
:103EF0005040E695001CCAF72BD0FE2F29D0660F44
:103F0000771F881FBB1F261737074807AB07B0E886
:103F100009F0BB0B802DBF01FF2793585F4F3AF08C
:103F20009E3F510578F00C9451200C94C3205F3FC4
:103F3000E4F3983ED4F3869577956795B795F79512
:103F40009F5FC9F7880F911D9695879597F90895FA
:103F5000E1E0660F771F881FBB1F62177307840796
:103F6000BA0720F0621B730B840BBA0BEE1F88F7A5
:103F7000E09508950E94C11F6894B1110C94C3206C
:103F800008950E94A82088F09F5798F0B92F99278C
:103F9000B751B0F0E1F0660F771F881F991F1AF034
:103FA000BA95C9F714C0B13091F00E94C220B1E0B7
:103FB00008950C94C220672F782F8827B85F39F0B6
:103FC000B93FCCF3869577956795B395D9F73EF4CD
:103FD00090958095709561957F4F8F4F9F4F089575
:103FE000E89409C097FB3EF4909580957095619593
:103FF0007F4F8F4F9F4F9923A9F0F92F96E9BB2749
:104000009395F695879577956795B795F111F8CFC4
:10401000FAF4BB0F11F460FF1BC06F5F7F4F8F4F2F
:104020009F4F16C0882311F096E911C0772321F025
:104030009EE8872F762F05C0662371F096E8862FBD
:1040400070E060E02AF09A95660F771F881FDAF714
:10405000880F9695879597F90895990F0008550F41
:10406000AA0BE0E8FEEF16161706E807F907C0F0FE
:1040700012161306E407F50798F0621B730B840B06
:10408000950B39F40A2661F0232B242B252B21F4E0
:1040900008950A2609F4A140A6958FEF811D811D80
:1040A000089597F99F6780E870E060E008959FEFBA
:1040B00080EC0895DF93CF931F930F93FF92EF92BD
:1040C000DF927B018C01689406C0DA2EEF010E941A
:1040D000E920FE01E894A5912591359145915591EE
:1040E000A6F3EF010E947C1EFE019701A801DA945D
:1040F00069F7DF90EF90FF900F911F91CF91DF91C3
:10410000089500240A94161617061806090608953D
:1041100000240A9412161306140605060895092EA3
:104120000394000C11F4882352F0BB0F40F4BF2B12
:1041300011F460FF04C06F5F7F4F8F4F9F4F089552
:1041400057FD9058440F551F59F05F3F71F0479548
:10415000880F97FB991F61F09F3F79F0879508952D
:10416000121613061406551FF2CF4695F1DF08C04C
:10417000161617061806991FF1CF86957105610569
:1041800008940895E894BB2766277727CB0197F911
:1041900008950E942D2008F48FEF08959B01AC0133
:1041A00060E070E080E89FE30C94481F0E94E920E3
:1041B0000C948F200E94812038F00E94882020F0EB
:1041C000952311F00C9451200C94572011240C9439
:1041D000C3200E94A02070F3959FC1F3950F50E07B
:1041E000551F629FF001729FBB27F00DB11D639FA9
:1041F000AA27F00DB11DAA1F649F6627B00DA11D4F
:10420000661F829F2227B00DA11D621F739FB00DF4
:10421000A11D621F839FA00D611D221F749F332764
:10422000A00D611D231F849F600D211D822F762FFD
:104230006A2F11249F5750409AF0F1F088234AF0DA
:10424000EE0FFF1FBB1F661F771F881F9150504046
:10425000A9F79E3F510580F00C9451200C94C32087
:104260005F3FE4F3983ED4F3869577956795B795CD
:10427000F795E7959F5FC1F7FE2B880F911D9695E7
:10428000879597F9089519F416F40C9457200C9417
:1042900092210E94A820B8F39923C9F3B6F39F573F
:1042A000550B87FF0E94A0210024A0E640EA900160
:1042B00080585695979528F4805C660F771F881F65
:1042C00020F026173707480730F4621B730B840B66
:1042D000202931294A2BA6951794079420253125AA
:1042E0004A2758F7660F771F881F20F026173707D1
:1042F000480730F4620B730B840B200D311D411DF8
:10430000A09581F7B901842F9158880F96958795CC
:1043100008959B01AC010C94D6200E942D20880B9F
:10432000990B08959F3F31F0915020F48795779530
:104330006795B795880F911D9695879597F908957C
:1043400091505040660F771F881FD2F70895CF9382
:10435000DF938230910510F482E090E0E091F60363
:10436000F091F70320E030E0C0E0D0E0309711F1A9
:104370004081518148175907C0F04817590761F427
:1043800082819381209719F09B838A832BC090931D
:10439000F7038093F60326C02115310519F0421763
:1043A000530718F49A01BE01DF01EF010280F38187
:1043B000E02DDCCF2115310509F1281B390B243004
:1043C000310590F412968D919C91139761157105AA
:1043D00021F0FB019383828304C09093F7038093C1
:1043E000F603FD01329644C0FD01E20FF31F8193F5
:1043F0009193225031092D933C933AC02091F403BC
:104400003091F503232B41F42091120130911301D7
:104410003093F5032093F4032091100130911101A2
:104420002115310541F42DB73EB74091140150914B
:104430001501241B350BE091F403F091F503E2170D
:10444000F307A0F42E1B3F0B2817390778F0AC01B7
:104450004E5F5F4F2417350748F04E0F5F1F509394
:10446000F5034093F4038193919302C0E0E0F0E000
:10447000CF01DF91CF9108950F931F93CF93DF93D7
:10448000009709F48CC0FC013297138212820091CC
:10449000F6031091F7030115110581F42081318194
:1044A000820F931F2091F4033091F50328173907E9
:1044B00079F5F093F503E093F40371C0D80140E07F
:1044C00050E0AE17BF0750F412962D913C91139710
:1044D000AD012115310509F1D901F3CF9D01DA01B3
:1044E0003383228360817181860F971F8217930720
:1044F00069F4EC0128813981260F371F2E5F3F4F69
:10450000318320838A819B8193838283452B29F485
:10451000F093F703E093F60342C01396FC93EE93F7
:104520001297ED01499159919E01240F351FE21711
:10453000F30771F480819181840F951F0296119683
:104540009C938E938281938113969C938E93129762
:10455000E0E0F0E0D80112968D919C9113970097BE
:1045600019F0F8018C01F6CF8D919C9198012E5F86
:104570003F4F820F931F2091F4033091F5032817CA
:10458000390769F4309729F41092F7031092F60373
:1045900002C0138212821093F5030093F403DF919B
:1045A000CF911F910F910895A0E0B0E0EAEDF2E203
:1045B0000C94BD23EC01009721F4CB010E94A721AC
:1045C000B8C0FC01E60FF71F9C0122503109E21729
:1045D000F30708F4ACC0D9010D911C91119706178F
:1045E0001707B0F00530110508F49FC0C801049703
:1045F0008617970708F499C002501109061B170B7C
:10460000019311936D937C93CF010E943C228DC046
:104610005B01A01AB10A4C01800E911EA091F60315
:10462000B091F70340E050E0E12CF12C109709F431
:104630004AC0A815B905D1F56D907C90119763011A
:1046400082E0C80ED11CCA14DB0480F1A3014A1910
:104650005B096A0182E0C80ED11C1296BC901297C9
:104660001396AC91B5E0CB16D10440F0B282A3838F
:1046700051834083D9016D937C930AC00E5F1F4F15
:10468000C301800F911FF90191838083EB2DFA2FD5
:10469000E114F10431F0D7011396FC93EE931297D5
:1046A00044C0F093F703E093F6033FC08D919C91D3
:1046B00011974817590708F4AC017D0112960D9027
:1046C000BC91A02DB3CF8091F4039091F503881590
:1046D0009905E1F446175707C8F4809110019091AD
:1046E0001101009741F48DB79EB74091140150918C
:1046F0001501841B950BE817F907C8F4F093F5032F
:10470000E093F403F901718360830FC0CB010E9431
:10471000A7217C01009759F0A801BE010E94B02397
:10472000CE010E943C22C70104C0CE0102C080E03D
:1047300090E0CDB7DEB7EEE00C94D92381E090E0B5
:10474000F8940C94F023FB01DC0104C08D910190DE
:10475000801921F441505040C8F7881B990B0895E7
:10476000FB01DC0102C001900D9241505040D8F78E
:1047700008952F923F924F925F926F927F928F9205
:104780009F92AF92BF92CF92DF92EF92FF920F93E0
:104790001F93CF93DF93CDB7DEB7CA1BDB0B0FB6EA
:1047A000F894DEBF0FBECDBF09942A8839884888A7
:1047B0005F846E847D848C849B84AA84B984C8843D
:1047C000DF80EE80FD800C811B81AA81B981CE0F34
:1047D000D11D0FB6F894DEBF0FBECDBFED01089519
:0447E000F894FFCF7B
:1047E400314E6F6465000000324E6F646500000056
:1047F4000000F8038000E80300000000AE057E0519
:10480400760562055305520500000000F20A6E0A9F
:10481400BB0A990AAD0A390B1E426567696E000D21
:104824000A00203A09006E616E00696E66006F76B8
:0448340066002E00EC
:00000001FF
